:100000000C9434000C9451000C9451000C94510049
:100010000C9451000C9451000C9451000C9451001C
:100020000C9451000C9451000C9451000C9451000C
:100030000C9451000C9451000C9451000C945100FC
:100040000C9451000C9451000C9451000C945100EC
:100050000C9451000C9451000C9451000C945100DC
:100060000C9451000C94510011241FBECFEFD8E026
:10007000DEBFCDBF21E0A4E0B1E001C01D92A630FB
:10008000B207E1F711E0A0E0B1E0E2E6F3E002C080
:1000900005900D92A430B107D9F70E94EA000C94A4
:1000A000AF010C94000085E090E00E943C01909329
:1000B0000501809304018230910509F440C02CF4BD
:1000C000009759F0019711F108958330910509F4D3
:1000D0004FC0049709F465C0089585B1806285B961
:1000E0002FEF85EA9EE0215080409040E1F700C06C
:1000F000000085B18F7D85B92FEF85EA9EE0215004
:1001000080409040E1F700C00000089585B1806212
:1001100085B92FEF89E698E1215080409040E1F7C2
:1001200000C0000085B18F7D85B92FEF89E698E189
:10013000215080409040E1F700C00000089585B153
:10014000806285B92FEF8DE292E22150804090408D
:10015000E1F700C0000085B18F7D85B92FEF8DE2FA
:1001600092E2215080409040E1F700C000000895E5
:1001700085B1806285B92FEF81EF9BE221508040ED
:100180009040E1F700C0000085B18F7D85B92FEF69
:1001900081EF9BE2215080409040E1F700C00000D9
:1001A000089585B1806285B92FEF85EB95E32150E5
:1001B00080409040E1F700C0000085B18F7D85B997
:1001C0002FEF85EB95E3215080409040E1F700C090
:1001D0000000089584B1806284B90E945300FDCF6D
:1001E0008F929F92AF92BF92CF92DF92EF92FF9247
:1001F000CF93DF93EC01688179818A819B816115BE
:1002000071058105910521F464E279ED8BE597E0B4
:100210002DE133EF41E050E00E944C0149015A01C9
:100220009B01AC01A7EAB1E40E946B016B017C0168
:10023000ACEEB4EFA50194010E947901DC01CB0181
:100240008C0D9D1DAE1DBF1DB7FF03C00197A109F9
:10025000B04888839983AA83BB839F77DF91CF912E
:10026000FF90EF90DF90CF90BF90AF909F908F90D6
:1002700008950E94F000089580E091E00E94F0004F
:100280000895A0E0B0E08093000190930101A09355
:100290000201B09303010895052E97FB1EF400940C
:1002A0000E94630157FD07D00E947E0107FC03D026
:1002B0004EF40C94630150954095309521953F4F35
:1002C0004F4F5F4F089590958095709561957F4F42
:1002D0008F4F9F4F08950E94A001A59F900DB49F3E
:1002E000900DA49F800D911D11240895B7FF0C94CB
:1002F0006B010E946B01821B930B0895A1E21A2EE1
:10030000AA1BBB1BFD010DC0AA1FBB1FEE1FFF1FB9
:10031000A217B307E407F50720F0A21BB30BE40B09
:10032000F50B661F771F881F991F1A9469F7609550
:100330007095809590959B01AC01BD01CF0108950A
:10034000A29FB001B39FC001A39F700D811D112416
:10035000911DB29F700D811D1124911D0895F89477
:02036000FFCFCD
:040362000100000096
:00000001FF
